{
  "_format": "hh-sol-artifact-1",
  "contractName": "WETFToken",
  "sourceName": "contracts/wetftoken.sol",
  "abi": [
    {
      "inputs": [
        {
          "internalType": "string",
          "name": "name",
          "type": "string"
        },
        {
          "internalType": "string",
          "name": "symbol",
          "type": "string"
        }
      ],
      "stateMutability": "nonpayable",
      "type": "constructor"
    },
    {
      "anonymous": false,
      "inputs": [
        {
          "indexed": true,
          "internalType": "address",
          "name": "owner",
          "type": "address"
        },
        {
          "indexed": true,
          "internalType": "address",
          "name": "spender",
          "type": "address"
        },
        {
          "indexed": false,
          "internalType": "uint256",
          "name": "value",
          "type": "uint256"
        }
      ],
      "name": "Approval",
      "type": "event"
    },
    {
      "anonymous": false,
      "inputs": [
        {
          "indexed": true,
          "internalType": "address",
          "name": "from",
          "type": "address"
        },
        {
          "indexed": true,
          "internalType": "address",
          "name": "to",
          "type": "address"
        },
        {
          "indexed": false,
          "internalType": "uint256",
          "name": "value",
          "type": "uint256"
        }
      ],
      "name": "Transfer",
      "type": "event"
    },
    {
      "inputs": [
        {
          "internalType": "address",
          "name": "owner",
          "type": "address"
        },
        {
          "internalType": "address",
          "name": "spender",
          "type": "address"
        }
      ],
      "name": "allowance",
      "outputs": [
        {
          "internalType": "uint256",
          "name": "",
          "type": "uint256"
        }
      ],
      "stateMutability": "view",
      "type": "function"
    },
    {
      "inputs": [
        {
          "internalType": "address",
          "name": "spender",
          "type": "address"
        },
        {
          "internalType": "uint256",
          "name": "amount",
          "type": "uint256"
        }
      ],
      "name": "approve",
      "outputs": [
        {
          "internalType": "bool",
          "name": "",
          "type": "bool"
        }
      ],
      "stateMutability": "nonpayable",
      "type": "function"
    },
    {
      "inputs": [
        {
          "internalType": "address",
          "name": "account",
          "type": "address"
        }
      ],
      "name": "balanceOf",
      "outputs": [
        {
          "internalType": "uint256",
          "name": "",
          "type": "uint256"
        }
      ],
      "stateMutability": "view",
      "type": "function"
    },
    {
      "inputs": [],
      "name": "decimals",
      "outputs": [
        {
          "internalType": "uint8",
          "name": "",
          "type": "uint8"
        }
      ],
      "stateMutability": "view",
      "type": "function"
    },
    {
      "inputs": [
        {
          "internalType": "address",
          "name": "spender",
          "type": "address"
        },
        {
          "internalType": "uint256",
          "name": "subtractedValue",
          "type": "uint256"
        }
      ],
      "name": "decreaseAllowance",
      "outputs": [
        {
          "internalType": "bool",
          "name": "",
          "type": "bool"
        }
      ],
      "stateMutability": "nonpayable",
      "type": "function"
    },
    {
      "inputs": [
        {
          "internalType": "address",
          "name": "recipient",
          "type": "address"
        },
        {
          "internalType": "uint256",
          "name": "amount",
          "type": "uint256"
        }
      ],
      "name": "faucet",
      "outputs": [],
      "stateMutability": "nonpayable",
      "type": "function"
    },
    {
      "inputs": [
        {
          "internalType": "address",
          "name": "spender",
          "type": "address"
        },
        {
          "internalType": "uint256",
          "name": "addedValue",
          "type": "uint256"
        }
      ],
      "name": "increaseAllowance",
      "outputs": [
        {
          "internalType": "bool",
          "name": "",
          "type": "bool"
        }
      ],
      "stateMutability": "nonpayable",
      "type": "function"
    },
    {
      "inputs": [],
      "name": "name",
      "outputs": [
        {
          "internalType": "string",
          "name": "",
          "type": "string"
        }
      ],
      "stateMutability": "view",
      "type": "function"
    },
    {
      "inputs": [],
      "name": "symbol",
      "outputs": [
        {
          "internalType": "string",
          "name": "",
          "type": "string"
        }
      ],
      "stateMutability": "view",
      "type": "function"
    },
    {
      "inputs": [],
      "name": "totalSupply",
      "outputs": [
        {
          "internalType": "uint256",
          "name": "",
          "type": "uint256"
        }
      ],
      "stateMutability": "view",
      "type": "function"
    },
    {
      "inputs": [
        {
          "internalType": "address",
          "name": "to",
          "type": "address"
        },
        {
          "internalType": "uint256",
          "name": "amount",
          "type": "uint256"
        }
      ],
      "name": "transfer",
      "outputs": [
        {
          "internalType": "bool",
          "name": "",
          "type": "bool"
        }
      ],
      "stateMutability": "nonpayable",
      "type": "function"
    },
    {
      "inputs": [
        {
          "internalType": "address",
          "name": "from",
          "type": "address"
        },
        {
          "internalType": "address",
          "name": "to",
          "type": "address"
        },
        {
          "internalType": "uint256",
          "name": "amount",
          "type": "uint256"
        }
      ],
      "name": "transferFrom",
      "outputs": [
        {
          "internalType": "bool",
          "name": "",
          "type": "bool"
        }
      ],
      "stateMutability": "nonpayable",
      "type": "function"
    },
    {
      "inputs": [
        {
          "internalType": "address",
          "name": "sender",
          "type": "address"
        },
        {
          "internalType": "address",
          "name": "recipient",
          "type": "address"
        },
        {
          "internalType": "uint256",
          "name": "amount",
          "type": "uint256"
        }
      ],
      "name": "vote",
      "outputs": [],
      "stateMutability": "nonpayable",
      "type": "function"
    }
  ],
  "bytecode": "0x60806040523480156200001157600080fd5b5060405162001aee38038062001aee83398181016040528101906200003791906200032b565b818181600390805190602001906200005192919062000209565b5080600490805190602001906200006a92919062000209565b505050620000893369152d02c7e14af68000006200009160201b60201c565b505062000655565b600073ffffffffffffffffffffffffffffffffffffffff168273ffffffffffffffffffffffffffffffffffffffff16141562000104576040517f08c379a0000000000000000000000000000000000000000000000000000000008152600401620000fb90620003d6565b60405180910390fd5b6200011860008383620001ff60201b60201c565b80600260008282546200012c919062000485565b92505081905550806000808473ffffffffffffffffffffffffffffffffffffffff1673ffffffffffffffffffffffffffffffffffffffff168152602001908152602001600020600082825401925050819055508173ffffffffffffffffffffffffffffffffffffffff16600073ffffffffffffffffffffffffffffffffffffffff167fddf252ad1be2c89b69c2b068fc378daa952ba7f163c4a11628f55a4df523b3ef83604051620001df9190620003f8565b60405180910390a3620001fb600083836200020460201b60201c565b5050565b505050565b505050565b828054620002179062000522565b90600052602060002090601f0160209004810192826200023b576000855562000287565b82601f106200025657805160ff191683800117855562000287565b8280016001018555821562000287579182015b828111156200028657825182559160200191906001019062000269565b5b5090506200029691906200029a565b5090565b5b80821115620002b55760008160009055506001016200029b565b5090565b6000620002d0620002ca846200043e565b62000415565b905082815260208101848484011115620002e957600080fd5b620002f6848285620004ec565b509392505050565b600082601f8301126200031057600080fd5b815162000322848260208601620002b9565b91505092915050565b600080604083850312156200033f57600080fd5b600083015167ffffffffffffffff8111156200035a57600080fd5b6200036885828601620002fe565b925050602083015167ffffffffffffffff8111156200038657600080fd5b6200039485828601620002fe565b9150509250929050565b6000620003ad601f8362000474565b9150620003ba826200062c565b602082019050919050565b620003d081620004e2565b82525050565b60006020820190508181036000830152620003f1816200039e565b9050919050565b60006020820190506200040f6000830184620003c5565b92915050565b60006200042162000434565b90506200042f828262000558565b919050565b6000604051905090565b600067ffffffffffffffff8211156200045c576200045b620005ec565b5b62000467826200061b565b9050602081019050919050565b600082825260208201905092915050565b60006200049282620004e2565b91506200049f83620004e2565b9250827fffffffffffffffffffffffffffffffffffffffffffffffffffffffffffffffff03821115620004d757620004d66200058e565b5b828201905092915050565b6000819050919050565b60005b838110156200050c578082015181840152602081019050620004ef565b838111156200051c576000848401525b50505050565b600060028204905060018216806200053b57607f821691505b60208210811415620005525762000551620005bd565b5b50919050565b62000563826200061b565b810181811067ffffffffffffffff82111715620005855762000584620005ec565b5b80604052505050565b7f4e487b7100000000000000000000000000000000000000000000000000000000600052601160045260246000fd5b7f4e487b7100000000000000000000000000000000000000000000000000000000600052602260045260246000fd5b7f4e487b7100000000000000000000000000000000000000000000000000000000600052604160045260246000fd5b6000601f19601f8301169050919050565b7f45524332303a206d696e7420746f20746865207a65726f206164647265737300600082015250565b61148980620006656000396000f3fe608060405234801561001057600080fd5b50600436106100cf5760003560e01c806370a082311161008c578063a457c2d711610066578063a457c2d714610228578063a9059cbb14610258578063dd62ed3e14610288578063efa5d431146102b8576100cf565b806370a08231146101be5780637b56c2b2146101ee57806395d89b411461020a576100cf565b806306fdde03146100d4578063095ea7b3146100f257806318160ddd1461012257806323b872dd14610140578063313ce56714610170578063395093511461018e575b600080fd5b6100dc6102d4565b6040516100e99190610f06565b60405180910390f35b61010c60048036038101906101079190610d31565b610366565b6040516101199190610eeb565b60405180910390f35b61012a610389565b6040516101379190611028565b60405180910390f35b61015a60048036038101906101559190610ce2565b610393565b6040516101679190610eeb565b60405180910390f35b6101786103c2565b6040516101859190611043565b60405180910390f35b6101a860048036038101906101a39190610d31565b6103cb565b6040516101b59190610eeb565b60405180910390f35b6101d860048036038101906101d39190610c7d565b610402565b6040516101e59190611028565b60405180910390f35b61020860048036038101906102039190610d31565b61044a565b005b610212610458565b60405161021f9190610f06565b60405180910390f35b610242600480360381019061023d9190610d31565b6104ea565b60405161024f9190610eeb565b60405180910390f35b610272600480360381019061026d9190610d31565b610561565b60405161027f9190610eeb565b60405180910390f35b6102a2600480360381019061029d9190610ca6565b610584565b6040516102af9190611028565b60405180910390f35b6102d260048036038101906102cd9190610ce2565b61060b565b005b6060600380546102e390611158565b80601f016020809104026020016040519081016040528092919081815260200182805461030f90611158565b801561035c5780601f106103315761010080835404028352916020019161035c565b820191906000526020600020905b81548152906001019060200180831161033f57829003601f168201915b5050505050905090565b60008061037161061b565b905061037e818585610623565b600191505092915050565b6000600254905090565b60008061039e61061b565b90506103ab8582856107ee565b6103b685858561087a565b60019150509392505050565b60006012905090565b6000806103d661061b565b90506103f78185856103e88589610584565b6103f2919061107a565b610623565b600191505092915050565b60008060008373ffffffffffffffffffffffffffffffffffffffff1673ffffffffffffffffffffffffffffffffffffffff168152602001908152602001600020549050919050565b6104548282610af2565b5050565b60606004805461046790611158565b80601f016020809104026020016040519081016040528092919081815260200182805461049390611158565b80156104e05780601f106104b5576101008083540402835291602001916104e0565b820191906000526020600020905b8154815290600101906020018083116104c357829003601f168201915b5050505050905090565b6000806104f561061b565b905060006105038286610584565b905083811015610548576040517f08c379a000000000000000000000000000000000000000000000000000000000815260040161053f90610fe8565b60405180910390fd5b6105558286868403610623565b60019250505092915050565b60008061056c61061b565b905061057981858561087a565b600191505092915050565b6000600160008473ffffffffffffffffffffffffffffffffffffffff1673ffffffffffffffffffffffffffffffffffffffff16815260200190815260200160002060008373ffffffffffffffffffffffffffffffffffffffff1673ffffffffffffffffffffffffffffffffffffffff16815260200190815260200160002054905092915050565b61061683838361087a565b505050565b600033905090565b600073ffffffffffffffffffffffffffffffffffffffff168373ffffffffffffffffffffffffffffffffffffffff161415610693576040517f08c379a000000000000000000000000000000000000000000000000000000000815260040161068a90610fc8565b60405180910390fd5b600073ffffffffffffffffffffffffffffffffffffffff168273ffffffffffffffffffffffffffffffffffffffff161415610703576040517f08c379a00000000000000000000000000000000000000000000000000000000081526004016106fa90610f48565b60405180910390fd5b80600160008573ffffffffffffffffffffffffffffffffffffffff1673ffffffffffffffffffffffffffffffffffffffff16815260200190815260200160002060008473ffffffffffffffffffffffffffffffffffffffff1673ffffffffffffffffffffffffffffffffffffffff168152602001908152602001600020819055508173ffffffffffffffffffffffffffffffffffffffff168373ffffffffffffffffffffffffffffffffffffffff167f8c5be1e5ebec7d5bd14f71427d1e84f3dd0314c0f7b2291e5b200ac8c7c3b925836040516107e19190611028565b60405180910390a3505050565b60006107fa8484610584565b90507fffffffffffffffffffffffffffffffffffffffffffffffffffffffffffffffff81146108745781811015610866576040517f08c379a000000000000000000000000000000000000000000000000000000000815260040161085d90610f68565b60405180910390fd5b6108738484848403610623565b5b50505050565b600073ffffffffffffffffffffffffffffffffffffffff168373ffffffffffffffffffffffffffffffffffffffff1614156108ea576040517f08c379a00000000000000000000000000000000000000000000000000000000081526004016108e190610fa8565b60405180910390fd5b600073ffffffffffffffffffffffffffffffffffffffff168273ffffffffffffffffffffffffffffffffffffffff16141561095a576040517f08c379a000000000000000000000000000000000000000000000000000000000815260040161095190610f28565b60405180910390fd5b610965838383610c49565b60008060008573ffffffffffffffffffffffffffffffffffffffff1673ffffffffffffffffffffffffffffffffffffffff168152602001908152602001600020549050818110156109eb576040517f08c379a00000000000000000000000000000000000000000000000000000000081526004016109e290610f88565b60405180910390fd5b8181036000808673ffffffffffffffffffffffffffffffffffffffff1673ffffffffffffffffffffffffffffffffffffffff16815260200190815260200160002081905550816000808573ffffffffffffffffffffffffffffffffffffffff1673ffffffffffffffffffffffffffffffffffffffff168152602001908152602001600020600082825401925050819055508273ffffffffffffffffffffffffffffffffffffffff168473ffffffffffffffffffffffffffffffffffffffff167fddf252ad1be2c89b69c2b068fc378daa952ba7f163c4a11628f55a4df523b3ef84604051610ad99190611028565b60405180910390a3610aec848484610c4e565b50505050565b600073ffffffffffffffffffffffffffffffffffffffff168273ffffffffffffffffffffffffffffffffffffffff161415610b62576040517f08c379a0000000000000000000000000000000000000000000000000000000008152600401610b5990611008565b60405180910390fd5b610b6e60008383610c49565b8060026000828254610b80919061107a565b92505081905550806000808473ffffffffffffffffffffffffffffffffffffffff1673ffffffffffffffffffffffffffffffffffffffff168152602001908152602001600020600082825401925050819055508173ffffffffffffffffffffffffffffffffffffffff16600073ffffffffffffffffffffffffffffffffffffffff167fddf252ad1be2c89b69c2b068fc378daa952ba7f163c4a11628f55a4df523b3ef83604051610c319190611028565b60405180910390a3610c4560008383610c4e565b5050565b505050565b505050565b600081359050610c6281611425565b92915050565b600081359050610c778161143c565b92915050565b600060208284031215610c8f57600080fd5b6000610c9d84828501610c53565b91505092915050565b60008060408385031215610cb957600080fd5b6000610cc785828601610c53565b9250506020610cd885828601610c53565b9150509250929050565b600080600060608486031215610cf757600080fd5b6000610d0586828701610c53565b9350506020610d1686828701610c53565b9250506040610d2786828701610c68565b9150509250925092565b60008060408385031215610d4457600080fd5b6000610d5285828601610c53565b9250506020610d6385828601610c68565b9150509250929050565b610d76816110e2565b82525050565b6000610d878261105e565b610d918185611069565b9350610da1818560208601611125565b610daa816111e8565b840191505092915050565b6000610dc2602383611069565b9150610dcd826111f9565b604082019050919050565b6000610de5602283611069565b9150610df082611248565b604082019050919050565b6000610e08601d83611069565b9150610e1382611297565b602082019050919050565b6000610e2b602683611069565b9150610e36826112c0565b604082019050919050565b6000610e4e602583611069565b9150610e598261130f565b604082019050919050565b6000610e71602483611069565b9150610e7c8261135e565b604082019050919050565b6000610e94602583611069565b9150610e9f826113ad565b604082019050919050565b6000610eb7601f83611069565b9150610ec2826113fc565b602082019050919050565b610ed68161110e565b82525050565b610ee581611118565b82525050565b6000602082019050610f006000830184610d6d565b92915050565b60006020820190508181036000830152610f208184610d7c565b905092915050565b60006020820190508181036000830152610f4181610db5565b9050919050565b60006020820190508181036000830152610f6181610dd8565b9050919050565b60006020820190508181036000830152610f8181610dfb565b9050919050565b60006020820190508181036000830152610fa181610e1e565b9050919050565b60006020820190508181036000830152610fc181610e41565b9050919050565b60006020820190508181036000830152610fe181610e64565b9050919050565b6000602082019050818103600083015261100181610e87565b9050919050565b6000602082019050818103600083015261102181610eaa565b9050919050565b600060208201905061103d6000830184610ecd565b92915050565b60006020820190506110586000830184610edc565b92915050565b600081519050919050565b600082825260208201905092915050565b60006110858261110e565b91506110908361110e565b9250827fffffffffffffffffffffffffffffffffffffffffffffffffffffffffffffffff038211156110c5576110c461118a565b5b828201905092915050565b60006110db826110ee565b9050919050565b60008115159050919050565b600073ffffffffffffffffffffffffffffffffffffffff82169050919050565b6000819050919050565b600060ff82169050919050565b60005b83811015611143578082015181840152602081019050611128565b83811115611152576000848401525b50505050565b6000600282049050600182168061117057607f821691505b60208210811415611184576111836111b9565b5b50919050565b7f4e487b7100000000000000000000000000000000000000000000000000000000600052601160045260246000fd5b7f4e487b7100000000000000000000000000000000000000000000000000000000600052602260045260246000fd5b6000601f19601f8301169050919050565b7f45524332303a207472616e7366657220746f20746865207a65726f206164647260008201527f6573730000000000000000000000000000000000000000000000000000000000602082015250565b7f45524332303a20617070726f766520746f20746865207a65726f20616464726560008201527f7373000000000000000000000000000000000000000000000000000000000000602082015250565b7f45524332303a20696e73756666696369656e7420616c6c6f77616e6365000000600082015250565b7f45524332303a207472616e7366657220616d6f756e742065786365656473206260008201527f616c616e63650000000000000000000000000000000000000000000000000000602082015250565b7f45524332303a207472616e736665722066726f6d20746865207a65726f20616460008201527f6472657373000000000000000000000000000000000000000000000000000000602082015250565b7f45524332303a20617070726f76652066726f6d20746865207a65726f2061646460008201527f7265737300000000000000000000000000000000000000000000000000000000602082015250565b7f45524332303a2064656372656173656420616c6c6f77616e63652062656c6f7760008201527f207a65726f000000000000000000000000000000000000000000000000000000602082015250565b7f45524332303a206d696e7420746f20746865207a65726f206164647265737300600082015250565b61142e816110d0565b811461143957600080fd5b50565b6114458161110e565b811461145057600080fd5b5056fea2646970667358221220b1002a3db342c40c96a5e7c83215489cb6a254e5f527c3854639e886b78eb2bf64736f6c63430008030033",
  "linkReferences": {},
  "deployedLinkReferences": {}
}